:100F2D00E4FDFCC3ED9FEC9E50070DBD00010C8050
:010F3D00F2C1
:010F3E002290
:100E96008F188D1980077FD0120CFC5005120ECDCD
:0F0EA60080F4AF18120CFCAF19120CFC020EF402
:020D3F008F1A09
:100D4100E4F51B80077FD0120CFC5005120ECD80FC
:100D5100F4AF1A120CFC120EE17FD1120CFC120D31
:100D6100AB8F1B120F1AC2A07FF47E01120E12D29A
:0A0D7100A07FF47E01120E12AF1BEA
:010D7B002255
:080CB1008F0C8B0D8A0E890FD8
:100CB90080077FD0120CFC5005120ECD80F4AF0CCA
:100CC900120CFCE4F511F512C3E5129510E5119427
:100CD90000501DAB0DAA0EA90F8512828511831232
:100CE9000903FF120CFC0512E51270DC051180D80E
:030CF900020EF4F4
:080ADE008F088B098A0A890BBD
:100AE60080077FD0120CFC5005120ECD80F4AF08A3
:100AF600120CFC120EE17FD1120CFC120DABAB09ED
:100B0600AA0AA90BEF120930750E00750F01C3E58D
:100B16000F950DE50E950C5020120F07120DABAB7D
:100B260009AA0AA90B850F82850E83EF12094205D1
:100B36000FE50F70D9050E80D5120F1AC2A07FF4EB
:0E0B46007E01120E12D2A07FF47E01020E126A
:100BB000E50B75F00A84C454F0FEE50B75F00A8469
:100BC000E5F04EF514EB75F00A84C454F0FEEB75B5
:100BD000F00A84E5F04EF515ED75F00A84C454F082
:100BE000FEED75F00A84E5F04EF516EF146008048A
:100BF000700843164080034316607B007A00791426
:080C0000751003E4FF020CB1C2
:100A5D007B007A007914750C00750D03E4FF120A02
:100A6D00DE851413E513547FC4540F75F00AA4FFEB
:100A7D00E513540F2FF514851513E513C4540F7595
:100A8D00F00AA4FFE513540F2FF515E51630E623F4
:100A9D0030E5057517018003E4F517851613E51389
:100AAD00541FC4540F75F00AA4FFE513540F2FF50E
:100ABD00168017851613E513C4540F75F00AA4FF9D
:100ACD00E513540F2FF5167517027B007A00791474
:010ADD0022F6
:100B5400E50B75F00A84C454F0FEE50B75F00A84C5
:100B6400E5F04EF514EF75F00A84C454F0FEEF7509
:100B7400F00A84E5F04EF515ED75F00A84C454F0DE
:100B8400FFED75F00A84E5F04FF516EB75F00A8475
:100B9400C454F0FFEB75F00A84E5F04FF5177B00C1
:0C0BA4007A0079147510047F03020CB174
:100C5D007B007A007914750C00750D047F03120A60
:100C6D00DE851513E513C4540F75F00AA4FFE513C3
:100C7D00540F2FF515851613E513C4540F75F00A8F
:100C8D00A4FFE513540F2FF516851713E513C45460
:100C9D000F75F00AA4FFE513540F2FF5177B007A9B
:040CAD000079142294
:0D0E05007FFA7E00120E12D2A17FFA7E004D
:100E12007C007D0F120964E4FDFCC3ED9FEC9E5043
:080E2200070DBD00010C80F278
:010E2A0022A5
:050F5900D2A0D2A1228C
:100ECD00D2A1D2A07FF47E01120E12C2A07FF47EB9
:040EDD0001020E12EE
:100EE100C2A1120E0ED2A0120E05C2A07FFA7E0080
:030EF100020E12DC
:100EF400C2A1120E0EC2A0120E05D2A07FFA7E006D
:030F0400020E12C8
:100F0700C2A1120E0EC2A0120E0ED2A17FF47E0154
:030F1700020E12B5
:100F1A00C2A1120E0ED2A0120E0ED2A17FF47E0131
:030F2A00020E12A2
:020CFC00AB0744
:100CFE00E4FAC2A1120E0EEBA802088002C333D88A
:100D0E00FC30E704D2A08002C2A0120E0ED2A17F48
:100D1E00F47E01120E120ABA08D8C2A1D2A07FF434
:100D2E007E01120E12D2A17FF47E01120E12A2A02B
:010D3E002292
:100DAB00E4FBFAC2A1D2A07FF47E01120E09A2A02D
:100DBB00E433F9C374079AFFE9A807088002C33329
:0D0DCB00D8FC4203120E0E0ABA08D8AF037E
:010DD80022F8
:100E2B00414D00504D004D4F4E0054554500574518
:100E3B004400544855004652490053415400535501
:060E4B004E003F3F3F0096
:060EB50053A00F43A03022
:100EBB00D2917FFA7E00120E12C2917FFA7E00024F
:020ECB000E1205
:100D7C00AB08AA09A90A12090375F00A84E5F02444
:020D8C0030FF36
:100D8E008F0ED29053A00FE50E54F042A0120EBB60
:0D0D9E0053A00FE50EC454F042A0020EBB9E
:100E76008E0B8F0CC29053A00FE50C54F042A012BB
:100E86000EBB53A00FAF0CEFC454F042A0020EBB32
:100C0800C290C2917F987E3A120E12120EB57F944E
:100C18007E11120E12120EB57F2C7E01120E1212C8
:100C28000EB57F8A7E02120E1253A00F43A0201227
:100C38000EBB7F8A7E02120E127F287E00120E766D
:100C48007F0C7E00120E767F017E00120E767F06E4
:050C58007E00020E7693
:0E0F3F007F017E00120E767FD07E07020E121A
:100E51008B0B8A0C890DAB0BAA0CA90D1208EA6049
:100E610013050DE50D7002050C14F91208EAFF12C5
:050E71000D8E80E2225D
:1009B9008B088A09890A120F3FAB08AA09A90A906C
:1009C900000212090375F00A842430FF120D8EAB60
:1009D90008AA09A90A900002120D827F3A120D8E07
:1009E900AB08AA09A90A90000112090375F00A8443
:1009F9002430FF120D8EAB08AA09A90A9000011232
:100A09000D827F3A120D8EAB08AA09A90A1208EACB
:100A190075F00A842430FF120D8EAB08AA09A90AC1
:100A29001208EA120D857F20120D8EAB08AA09A9BA
:100A39000A90000312090314600B0470117BFF7AFA
:100A49000E792B80067BFF7A0E792E020E517F4894
:040A5900120D8E22CA
:100800008B088A09890A7FC07E00120E76AB08AA7F
:1008100009A90A90000112090375F00A842430FF27
:10082000120D8E900001120D7C7F2F120D8EAB08E1
:10083000AA09A90A90000212090375F00A8424305B
:10084000FF120D8E900002120D7C7F2F120D8EABC9
:1008500008AA09A90A90000312090375F00A842462
:1008600030FF120D8EAB08AA09A90A900003120DE1
:10087000827F20120D8EAB08AA09A90A1208EA1479
:10088000B40700505B90089375F003A4C58325F06E
:10089000C583730208A80208B00208B80208C002A3
:1008A00008C80208D00208D87BFF7A0E793180365A
:1008B0007BFF7A0E7935802E7BFF7A0E7939802680
:1008C0007BFF7A0E793D801E7BFF7A0E7941801680
:1008D0007BFF7A0E7945800E7BFF7A0E7949800680
:0A08E0007BFF7A0E794D120E5122B3
:100DD900120C08120F59750B3B7B207D08E4FF129A
:100DE9000BB0750B057B0C7D0B7F02120B54120A9D
:0C0DF9005D1209B9120C5D12080080F2B6
:03000000020F4D9F
:0C0F4D00787FE4F6D8FD75811B020DD9F9
:1008EA00BB010689828A83E0225002E722BBFE020C
:0908FA00E32289828A83E493223F
:10090300BB010CE58229F582E5833AF583E02250A9
:1009130006E92582F8E622BBFE06E92582F8E222F3
:0D092300E58229F582E5833AF583E493220D
:10093000BB010689828A83F0225002F722BBFE01A6
:02094000F322A0
:10094200F8BB010DE58229F582E5833AF583E8F0EB
:10095200225006E92582C8F622BBFE05E92582C897
:02096200F2227F
:10096400BC000BBE0029EF8DF084FFADF022E4CC77
:10097400F875F008EF2FFFEE33FEEC33FCEE9DEC40
:10098400984005FCEE9DFE0FD5F0E9E4CEFD22ED86
:10099400F8F5F0EE8420D21CFEADF075F008EF2FD0
:1009A400FFED33FD4007985006D5F0F222C398FDC1
:0509B4000FD5F0EA225E
:00000001FF
